{
  "_format": "hh-sol-artifact-1",
  "contractName": "AgentLiquidityMarketplace",
  "sourceName": "contracts/core/AgentLiquidityMarketplace.sol",
  "abi": [
    {
      "inputs": [
        {
          "internalType": "address",
          "name": "_agentRegistry",
          "type": "address"
        },
        {
          "internalType": "address",
          "name": "_reputationManager",
          "type": "address"
        },
        {
          "internalType": "address",
          "name": "_usdcToken",
          "type": "address"
        }
      ],
      "stateMutability": "nonpayable",
      "type": "constructor"
    },
    {
      "inputs": [],
      "name": "EnforcedPause",
      "type": "error"
    },
    {
      "inputs": [],
      "name": "ExpectedPause",
      "type": "error"
    },
    {
      "inputs": [
        {
          "internalType": "address",
          "name": "owner",
          "type": "address"
        }
      ],
      "name": "OwnableInvalidOwner",
      "type": "error"
    },
    {
      "inputs": [
        {
          "internalType": "address",
          "name": "account",
          "type": "address"
        }
      ],
      "name": "OwnableUnauthorizedAccount",
      "type": "error"
    },
    {
      "inputs": [],
      "name": "ReentrancyGuardReentrantCall",
      "type": "error"
    },
    {
      "inputs": [
        {
          "internalType": "address",
          "name": "token",
          "type": "address"
        }
      ],
      "name": "SafeERC20FailedOperation",
      "type": "error"
    },
    {
      "anonymous": false,
      "inputs": [
        {
          "indexed": true,
          "internalType": "uint256",
          "name": "agentId",
          "type": "uint256"
        },
        {
          "indexed": false,
          "internalType": "uint256",
          "name": "totalInterest",
          "type": "uint256"
        }
      ],
      "name": "InterestDistributed",
      "type": "event"
    },
    {
      "anonymous": false,
      "inputs": [
        {
          "indexed": true,
          "internalType": "uint256",
          "name": "agentId",
          "type": "uint256"
        },
        {
          "indexed": true,
          "internalType": "address",
          "name": "lender",
          "type": "address"
        },
        {
          "indexed": false,
          "internalType": "uint256",
          "name": "amount",
          "type": "uint256"
        }
      ],
      "name": "LiquiditySupplied",
      "type": "event"
    },
    {
      "anonymous": false,
      "inputs": [
        {
          "indexed": true,
          "internalType": "uint256",
          "name": "agentId",
          "type": "uint256"
        },
        {
          "indexed": true,
          "internalType": "address",
          "name": "lender",
          "type": "address"
        },
        {
          "indexed": false,
          "internalType": "uint256",
          "name": "amount",
          "type": "uint256"
        }
      ],
      "name": "LiquidityWithdrawn",
      "type": "event"
    },
    {
      "anonymous": false,
      "inputs": [
        {
          "indexed": true,
          "internalType": "uint256",
          "name": "loanId",
          "type": "uint256"
        }
      ],
      "name": "LoanDefaulted",
      "type": "event"
    },
    {
      "anonymous": false,
      "inputs": [
        {
          "indexed": true,
          "internalType": "uint256",
          "name": "loanId",
          "type": "uint256"
        },
        {
          "indexed": false,
          "internalType": "uint256",
          "name": "amount",
          "type": "uint256"
        }
      ],
      "name": "LoanDisbursed",
      "type": "event"
    },
    {
      "anonymous": false,
      "inputs": [
        {
          "indexed": true,
          "internalType": "uint256",
          "name": "loanId",
          "type": "uint256"
        },
        {
          "indexed": false,
          "internalType": "uint256",
          "name": "principal",
          "type": "uint256"
        },
        {
          "indexed": false,
          "internalType": "uint256",
          "name": "interest",
          "type": "uint256"
        }
      ],
      "name": "LoanRepaid",
      "type": "event"
    },
    {
      "anonymous": false,
      "inputs": [
        {
          "indexed": true,
          "internalType": "uint256",
          "name": "loanId",
          "type": "uint256"
        },
        {
          "indexed": true,
          "internalType": "uint256",
          "name": "agentId",
          "type": "uint256"
        },
        {
          "indexed": true,
          "internalType": "address",
          "name": "borrower",
          "type": "address"
        },
        {
          "indexed": false,
          "internalType": "uint256",
          "name": "amount",
          "type": "uint256"
        }
      ],
      "name": "LoanRequested",
      "type": "event"
    },
    {
      "anonymous": false,
      "inputs": [
        {
          "indexed": true,
          "internalType": "address",
          "name": "previousOwner",
          "type": "address"
        },
        {
          "indexed": true,
          "internalType": "address",
          "name": "newOwner",
          "type": "address"
        }
      ],
      "name": "OwnershipTransferred",
      "type": "event"
    },
    {
      "anonymous": false,
      "inputs": [
        {
          "indexed": false,
          "internalType": "address",
          "name": "account",
          "type": "address"
        }
      ],
      "name": "Paused",
      "type": "event"
    },
    {
      "anonymous": false,
      "inputs": [
        {
          "indexed": true,
          "internalType": "uint256",
          "name": "agentId",
          "type": "uint256"
        },
        {
          "indexed": false,
          "internalType": "uint256",
          "name": "oldTotalLoaned",
          "type": "uint256"
        },
        {
          "indexed": false,
          "internalType": "uint256",
          "name": "newTotalLoaned",
          "type": "uint256"
        },
        {
          "indexed": false,
          "internalType": "uint256",
          "name": "newAvailableLiquidity",
          "type": "uint256"
        }
      ],
      "name": "PoolAccountingReset",
      "type": "event"
    },
    {
      "anonymous": false,
      "inputs": [
        {
          "indexed": true,
          "internalType": "uint256",
          "name": "agentId",
          "type": "uint256"
        },
        {
          "indexed": true,
          "internalType": "address",
          "name": "agentAddress",
          "type": "address"
        }
      ],
      "name": "PoolCreated",
      "type": "event"
    },
    {
      "anonymous": false,
      "inputs": [
        {
          "indexed": false,
          "internalType": "address",
          "name": "account",
          "type": "address"
        }
      ],
      "name": "Unpaused",
      "type": "event"
    },
    {
      "inputs": [],
      "name": "MAX_ACTIVE_LOANS_PER_AGENT",
      "outputs": [
        {
          "internalType": "uint256",
          "name": "",
          "type": "uint256"
        }
      ],
      "stateMutability": "view",
      "type": "function"
    },
    {
      "inputs": [],
      "name": "MAX_INTEREST_RATE",
      "outputs": [
        {
          "internalType": "uint256",
          "name": "",
          "type": "uint256"
        }
      ],
      "stateMutability": "view",
      "type": "function"
    },
    {
      "inputs": [],
      "name": "MAX_LENDERS_PER_POOL",
      "outputs": [
        {
          "internalType": "uint256",
          "name": "",
          "type": "uint256"
        }
      ],
      "stateMutability": "view",
      "type": "function"
    },
    {
      "inputs": [],
      "name": "MAX_LOAN_DURATION",
      "outputs": [
        {
          "internalType": "uint256",
          "name": "",
          "type": "uint256"
        }
      ],
      "stateMutability": "view",
      "type": "function"
    },
    {
      "inputs": [],
      "name": "MIN_LOAN_DURATION",
      "outputs": [
        {
          "internalType": "uint256",
          "name": "",
          "type": "uint256"
        }
      ],
      "stateMutability": "view",
      "type": "function"
    },
    {
      "inputs": [],
      "name": "accumulatedFees",
      "outputs": [
        {
          "internalType": "uint256",
          "name": "",
          "type": "uint256"
        }
      ],
      "stateMutability": "view",
      "type": "function"
    },
    {
      "inputs": [
        {
          "internalType": "address",
          "name": "",
          "type": "address"
        },
        {
          "internalType": "uint256",
          "name": "",
          "type": "uint256"
        }
      ],
      "name": "agentLoans",
      "outputs": [
        {
          "internalType": "uint256",
          "name": "",
          "type": "uint256"
        }
      ],
      "stateMutability": "view",
      "type": "function"
    },
    {
      "inputs": [
        {
          "internalType": "uint256",
          "name": "",
          "type": "uint256"
        }
      ],
      "name": "agentPoolIds",
      "outputs": [
        {
          "internalType": "uint256",
          "name": "",
          "type": "uint256"
        }
      ],
      "stateMutability": "view",
      "type": "function"
    },
    {
      "inputs": [
        {
          "internalType": "uint256",
          "name": "",
          "type": "uint256"
        }
      ],
      "name": "agentPools",
      "outputs": [
        {
          "internalType": "uint256",
          "name": "agentId",
          "type": "uint256"
        },
        {
          "internalType": "address",
          "name": "agentAddress",
          "type": "address"
        },
        {
          "internalType": "uint256",
          "name": "totalLiquidity",
          "type": "uint256"
        },
        {
          "internalType": "uint256",
          "name": "availableLiquidity",
          "type": "uint256"
        },
        {
          "internalType": "uint256",
          "name": "totalLoaned",
          "type": "uint256"
        },
        {
          "internalType": "uint256",
          "name": "totalEarned",
          "type": "uint256"
        },
        {
          "internalType": "bool",
          "name": "isActive",
          "type": "bool"
        }
      ],
      "stateMutability": "view",
      "type": "function"
    },
    {
      "inputs": [],
      "name": "agentRegistry",
      "outputs": [
        {
          "internalType": "contract AgentRegistryV2",
          "name": "",
          "type": "address"
        }
      ],
      "stateMutability": "view",
      "type": "function"
    },
    {
      "inputs": [
        {
          "internalType": "uint256",
          "name": "principal",
          "type": "uint256"
        },
        {
          "internalType": "uint256",
          "name": "annualRateBPS",
          "type": "uint256"
        },
        {
          "internalType": "uint256",
          "name": "durationSeconds",
          "type": "uint256"
        }
      ],
      "name": "calculateInterest",
      "outputs": [
        {
          "internalType": "uint256",
          "name": "",
          "type": "uint256"
        }
      ],
      "stateMutability": "pure",
      "type": "function"
    },
    {
      "inputs": [
        {
          "internalType": "uint256",
          "name": "agentId",
          "type": "uint256"
        }
      ],
      "name": "claimInterest",
      "outputs": [],
      "stateMutability": "nonpayable",
      "type": "function"
    },
    {
      "inputs": [],
      "name": "createAgentPool",
      "outputs": [],
      "stateMutability": "nonpayable",
      "type": "function"
    },
    {
      "inputs": [],
      "name": "getActiveAgents",
      "outputs": [
        {
          "internalType": "uint256[]",
          "name": "",
          "type": "uint256[]"
        }
      ],
      "stateMutability": "view",
      "type": "function"
    },
    {
      "inputs": [
        {
          "internalType": "uint256",
          "name": "agentId",
          "type": "uint256"
        }
      ],
      "name": "getAgentPool",
      "outputs": [
        {
          "internalType": "address",
          "name": "agentAddress",
          "type": "address"
        },
        {
          "internalType": "uint256",
          "name": "totalLiquidity",
          "type": "uint256"
        },
        {
          "internalType": "uint256",
          "name": "availableLiquidity",
          "type": "uint256"
        },
        {
          "internalType": "uint256",
          "name": "totalLoaned",
          "type": "uint256"
        },
        {
          "internalType": "uint256",
          "name": "totalEarned",
          "type": "uint256"
        },
        {
          "internalType": "uint256",
          "name": "utilizationRate",
          "type": "uint256"
        },
        {
          "internalType": "uint256",
          "name": "lenderCount",
          "type": "uint256"
        }
      ],
      "stateMutability": "view",
      "type": "function"
    },
    {
      "inputs": [
        {
          "internalType": "uint256",
          "name": "agentId",
          "type": "uint256"
        },
        {
          "internalType": "address",
          "name": "lender",
          "type": "address"
        }
      ],
      "name": "getLenderPosition",
      "outputs": [
        {
          "internalType": "uint256",
          "name": "amount",
          "type": "uint256"
        },
        {
          "internalType": "uint256",
          "name": "earnedInterest",
          "type": "uint256"
        },
        {
          "internalType": "uint256",
          "name": "depositTimestamp",
          "type": "uint256"
        },
        {
          "internalType": "uint256",
          "name": "shareOfPool",
          "type": "uint256"
        }
      ],
      "stateMutability": "view",
      "type": "function"
    },
    {
      "inputs": [
        {
          "internalType": "uint256",
          "name": "loanId",
          "type": "uint256"
        }
      ],
      "name": "liquidateLoan",
      "outputs": [],
      "stateMutability": "nonpayable",
      "type": "function"
    },
    {
      "inputs": [
        {
          "internalType": "uint256",
          "name": "",
          "type": "uint256"
        }
      ],
      "name": "loans",
      "outputs": [
        {
          "internalType": "uint256",
          "name": "loanId",
          "type": "uint256"
        },
        {
          "internalType": "address",
          "name": "borrower",
          "type": "address"
        },
        {
          "internalType": "uint256",
          "name": "agentId",
          "type": "uint256"
        },
        {
          "internalType": "uint256",
          "name": "amount",
          "type": "uint256"
        },
        {
          "internalType": "uint256",
          "name": "collateralAmount",
          "type": "uint256"
        },
        {
          "internalType": "uint256",
          "name": "interestRate",
          "type": "uint256"
        },
        {
          "internalType": "uint256",
          "name": "startTime",
          "type": "uint256"
        },
        {
          "internalType": "uint256",
          "name": "endTime",
          "type": "uint256"
        },
        {
          "internalType": "uint256",
          "name": "duration",
          "type": "uint256"
        },
        {
          "internalType": "enum AgentLiquidityMarketplace.LoanState",
          "name": "state",
          "type": "uint8"
        }
      ],
      "stateMutability": "view",
      "type": "function"
    },
    {
      "inputs": [],
      "name": "nextLoanId",
      "outputs": [
        {
          "internalType": "uint256",
          "name": "",
          "type": "uint256"
        }
      ],
      "stateMutability": "view",
      "type": "function"
    },
    {
      "inputs": [],
      "name": "owner",
      "outputs": [
        {
          "internalType": "address",
          "name": "",
          "type": "address"
        }
      ],
      "stateMutability": "view",
      "type": "function"
    },
    {
      "inputs": [],
      "name": "pause",
      "outputs": [],
      "stateMutability": "nonpayable",
      "type": "function"
    },
    {
      "inputs": [],
      "name": "paused",
      "outputs": [
        {
          "internalType": "bool",
          "name": "",
          "type": "bool"
        }
      ],
      "stateMutability": "view",
      "type": "function"
    },
    {
      "inputs": [],
      "name": "platformFeeRate",
      "outputs": [
        {
          "internalType": "uint256",
          "name": "",
          "type": "uint256"
        }
      ],
      "stateMutability": "view",
      "type": "function"
    },
    {
      "inputs": [
        {
          "internalType": "uint256",
          "name": "",
          "type": "uint256"
        },
        {
          "internalType": "uint256",
          "name": "",
          "type": "uint256"
        }
      ],
      "name": "poolLenders",
      "outputs": [
        {
          "internalType": "address",
          "name": "",
          "type": "address"
        }
      ],
      "stateMutability": "view",
      "type": "function"
    },
    {
      "inputs": [
        {
          "internalType": "uint256",
          "name": "",
          "type": "uint256"
        },
        {
          "internalType": "address",
          "name": "",
          "type": "address"
        }
      ],
      "name": "positions",
      "outputs": [
        {
          "internalType": "uint256",
          "name": "amount",
          "type": "uint256"
        },
        {
          "internalType": "uint256",
          "name": "earnedInterest",
          "type": "uint256"
        },
        {
          "internalType": "uint256",
          "name": "depositTimestamp",
          "type": "uint256"
        }
      ],
      "stateMutability": "view",
      "type": "function"
    },
    {
      "inputs": [],
      "name": "renounceOwnership",
      "outputs": [],
      "stateMutability": "nonpayable",
      "type": "function"
    },
    {
      "inputs": [
        {
          "internalType": "uint256",
          "name": "loanId",
          "type": "uint256"
        }
      ],
      "name": "repayLoan",
      "outputs": [],
      "stateMutability": "nonpayable",
      "type": "function"
    },
    {
      "inputs": [],
      "name": "reputationManager",
      "outputs": [
        {
          "internalType": "contract ReputationManagerV3",
          "name": "",
          "type": "address"
        }
      ],
      "stateMutability": "view",
      "type": "function"
    },
    {
      "inputs": [
        {
          "internalType": "uint256",
          "name": "amount",
          "type": "uint256"
        },
        {
          "internalType": "uint256",
          "name": "durationDays",
          "type": "uint256"
        }
      ],
      "name": "requestLoan",
      "outputs": [
        {
          "internalType": "uint256",
          "name": "",
          "type": "uint256"
        }
      ],
      "stateMutability": "nonpayable",
      "type": "function"
    },
    {
      "inputs": [
        {
          "internalType": "uint256",
          "name": "agentId",
          "type": "uint256"
        }
      ],
      "name": "resetPoolAccounting",
      "outputs": [],
      "stateMutability": "nonpayable",
      "type": "function"
    },
    {
      "inputs": [
        {
          "internalType": "uint256",
          "name": "newRate",
          "type": "uint256"
        }
      ],
      "name": "setPlatformFeeRate",
      "outputs": [],
      "stateMutability": "nonpayable",
      "type": "function"
    },
    {
      "inputs": [
        {
          "internalType": "uint256",
          "name": "agentId",
          "type": "uint256"
        },
        {
          "internalType": "uint256",
          "name": "amount",
          "type": "uint256"
        }
      ],
      "name": "supplyLiquidity",
      "outputs": [],
      "stateMutability": "nonpayable",
      "type": "function"
    },
    {
      "inputs": [],
      "name": "totalPools",
      "outputs": [
        {
          "internalType": "uint256",
          "name": "",
          "type": "uint256"
        }
      ],
      "stateMutability": "view",
      "type": "function"
    },
    {
      "inputs": [
        {
          "internalType": "address",
          "name": "newOwner",
          "type": "address"
        }
      ],
      "name": "transferOwnership",
      "outputs": [],
      "stateMutability": "nonpayable",
      "type": "function"
    },
    {
      "inputs": [],
      "name": "unpause",
      "outputs": [],
      "stateMutability": "nonpayable",
      "type": "function"
    },
    {
      "inputs": [],
      "name": "usdcToken",
      "outputs": [
        {
          "internalType": "contract IERC20",
          "name": "",
          "type": "address"
        }
      ],
      "stateMutability": "view",
      "type": "function"
    },
    {
      "inputs": [
        {
          "internalType": "uint256",
          "name": "amount",
          "type": "uint256"
        }
      ],
      "name": "withdrawFees",
      "outputs": [],
      "stateMutability": "nonpayable",
      "type": "function"
    },
    {
      "inputs": [
        {
          "internalType": "uint256",
          "name": "agentId",
          "type": "uint256"
        },
        {
          "internalType": "uint256",
          "name": "amount",
          "type": "uint256"
        }
      ],
      "name": "withdrawLiquidity",
      "outputs": [],
      "stateMutability": "nonpayable",
      "type": "function"
    }
  ],
  "bytecode": "0x6080346200012e57601f6200258538819003918201601f19168301916001600160401b0383118484101762000133578084926060946040528339810103126200012e576200004d8162000149565b620000696040620000616020850162000149565b930162000149565b9033156200011557600080546001600160a01b03198082163390811784556040519691956001600160a01b0395909486949192918516907f8be0079c531659141344cd1fd0a4f28419497f9722a3daafe3b4186f6b6457e09080a3600180556001600a556064600b5560025490610100600160a81b039060081b1690610100600160a81b03191617600255168360035416176003551690600454161760045561242690816200015f8239f35b604051631e4fbdf760e01b815260006004820152602490fd5b600080fd5b634e487b7160e01b600052604160045260246000fd5b51906001600160a01b03821682036200012e5756fe6080604052600436101561001257600080fd5b6000803560e01c806305e1bd8c14611eac5780630d0b2ca614611e8d5780630d1cfcae14611e6057806310fb16db14611e1557806311eac85514611dec57806325422f9614611dd05780632eb375ea14611d3857806334855d1414611d1b5780633f4ba83a14611cb057806341fc317414611ae45780634bb1cc71146119c9578063587f5ed7146119ab578063590e2121146119325780635c975abb1461190f5780635e318e07146118785780635f7d06e4146118285780636b868afb146117ff578063715018a6146117a55780637ddced5a146116955780638456cb591461163a57806386b909fd146115d557806387c51459146115b757806389d99a05146115995780638da5cb5b14611572578063927fef2e146115125780639dff5556146114bc578063aa452fa614610e9b578063ab3c7e5214610e7d578063ab7b1c8914610b1b578063ccdd9f5d1461093d578063d34b974f146107fa578063e09645aa146105d8578063e1ec3c681461051f578063e684d718146104b3578063eeca08f014610495578063f2fde38b1461040a578063f9125423146103ee5763f9dbb69f146101bf57600080fd5b346103eb576101cd36611ee5565b906101d6612106565b6101de612002565b81156103b15780835260206005815260ff6006604086200154161561037b5781845260058152604084206006825260408520336000528252604060002090600360018060a01b039161023887846004541630903390612043565b60028101610247888254612020565b905501610255868254612020565b90558154156102a0575b50908161028e857f4852f894b7a4d0decfe8a6c11601ef51eca1b6f60d22d82f5df9f0959c5974b19454612020565b90556040519384523393a36001805580f35b8386526007835260c860408720541015610336578386526007835260408620805490600160401b82101561032257816103029160017f4852f894b7a4d0decfe8a6c11601ef51eca1b6f60d22d82f5df9f0959c5974b197969594018155611efb565b819291549060031b9133831b921b1916179055426002820155909161025f565b634e487b7160e01b88526041600452602488fd5b60405162461bcd60e51b815260048101849052601c60248201527f506f6f6c206c656e6465722063617061636974792072656163686564000000006044820152606490fd5b6064906040519062461bcd60e51b82526004820152600f60248201526e506f6f6c206e6f742061637469766560881b6044820152fd5b60405162461bcd60e51b81526020600482015260126024820152710416d6f756e74206d757374206265203e20360741b6044820152606490fd5b80fd5b50346103eb57806003193601126103eb57602060405160c88152f35b50346103eb5760203660031901126103eb57610424611f13565b61042c611f3f565b6001600160a01b0390811690811561047c57600054826001600160601b0360a01b821617600055167f8be0079c531659141344cd1fd0a4f28419497f9722a3daafe3b4186f6b6457e0600080a380f35b604051631e4fbdf760e01b815260048101849052602490fd5b50346103eb57806003193601126103eb576020600b54604051908152f35b50346103eb5760403660031901126103eb5760406104cf611f29565b9160043581526006602052209060018060a01b03166000526020526040600020805461051b60026001840154930154604051938493846040919493926060820195825260208201520152565b0390f35b50346103eb5760203660031901126103eb57600435815260086020526040812080549060018060a01b036001820154169060028101546003820154600483015460058401549060068501549260078601549460ff600960088901549801541697604051998a5260208a015260408901526060880152608087015260a086015260c085015260e084015261010083015260048110156105c4576101409250610120820152f35b634e487b7160e01b83526021600452602483fd5b50346103eb57806003193601126103eb576105f1612002565b600254604051633aeb3af960e21b8152336004820152906020906001600160a01b039082908490602490829060081c85165afa9283156107ef5784936107bb575b5061063e831515611fbd565b8284526005825260ff6006604086200154166107805760405160069161066382611f6b565b848252838201338152604083018781526060840190888252608085019289845260a08601948a8652600560c088019960018b528b8d525260408b2096518755600187019151166001600160601b0360a01b825416179055516002850155516003840155516004830155516005820155019051151560ff80198354169116179055600d54600160401b81101561076a576001810180600d55811015610754578190600d6000527fd7b6990105719101dabeb77144f2a3385c8033acd3af97e9423a695e81ad1eb5015533907f65fc0eb45954044fb55e1b01344d5d72fbfdf88e732d955f73bb7fb2bcc131e98380a380f35b634e487b7160e01b600052603260045260246000fd5b634e487b7160e01b600052604160045260246000fd5b60405162461bcd60e51b8152600481018390526013602482015272506f6f6c20616c72656164792065786973747360681b6044820152606490fd5b9092508181813d83116107e8575b6107d38183611f9b565b810103126107e357519138610632565b600080fd5b503d6107c9565b6040513d86823e3d90fd5b50346103eb5760403660031901126103eb57600435610817611f29565b8183526020600681526040842060018060a01b038093166000528152604060002092604051926060840184811067ffffffffffffffff82111761076a576040528454845260026001860154958486019687520154916040850192835286526005835260408620906040519061088b82611f6b565b825482526001830154168482015260028201549060c060ff600660408401958587526003810154606086015260048101546080860152600581015460a086015201541615159101521515600014610933578351956127109687810297818904149015171561091f57506080956109029151906121d6565b925b51935190519160405194855284015260408301526060820152f35b634e487b7160e01b81526011600452602490fd5b5060809492610904565b50346103eb5760203660031901126103eb5760043561095a611f3f565b610962612106565b808252600860205260408220600981019060ff8254166004811015610b0757600161098d911461239e565b6007810154421115610acf57839160028201548352600560205260408320906004830154916003840192835481808211600014610ac6576109cd91612175565b905b6109de60038401918254612020565b905580610aaf575b506109f8600484549201918254612175565b9055600360ff1982541617905560018060a01b0360018160035416930154169054823b15610aab576040516366a2a27960e11b81526001600160a01b0392909216600483015260248201529082908290604490829084905af18015610aa057610a88575b50807f0789b7097e8066538cfaa1132488b132e14ba5f0c938c8b7aaf8cf40356aab0b91a26001805580f35b610a9190611f87565b610a9c578138610a5c565b5080fd5b6040513d84823e3d90fd5b8380fd5b610abe60028301918254612175565b9055386109e6565b505085906109cf565b60405162461bcd60e51b815260206004820152601060248201526f4c6f616e206e6f74206f76657264756560801b6044820152606490fd5b634e487b7160e01b85526021600452602485fd5b50346103eb5760203660031901126103eb57610b35612106565b610b3d612002565b600435815260086020526040812060018101546001600160a01b03163303610e455760ff60098201541660048110156105c4576001610b7c911461239e565b6003810190815490610bb46301e13380610bac6005840154612710610ba6600887015492886121c3565b046121c3565b048093612020565b90612710610bc4600b54856121c3565b0493610beb610bd38686612175565b600454909490309033906001600160a01b0316612043565b600260ff1960098401541617600983015560028201805487526005602052600560408820610c1a868554612020565b610c2960038301918254612020565b90558354610c3c60048301918254612175565b905501610c4a858254612020565b9055549081875260056020526040872094600760205260408820918894895b8454811015610cff57610c7c8186611efb565b60018060a01b0391549060031b1c16868c52600660205260408c20908c5260205260408b208981548a81610cbd575b50505050610cb8906121f6565b610c69565b610ce1610cf594936002610cd8610cb8989e956001956121c3565b910154906121d6565b9201610cee838254612020565b9055612020565b969089388a610cab565b50899350610d4c89867f42d029138c014f559459aa5f9890a42034310bbbad272115d31bc70d80c00b1760208b610d368c82612175565b80610e30575b50604051908152a2600c54612020565b600c55600481015480610e0b575b5060078101546003546001909201548354429290921115928692916001600160a01b039182169116813b15610aab5783606492604051968795869463665d668760e11b86526004860152602485015260448401525af180156107ef57610df8575b50549060405191825260208201527fd9cfbcfb9ae5d65b8d34072de4575f602ee25cf3715bc05c291701fe9e258f9a604060043592a26001805580f35b610e0490939193611f87565b9183610dbb565b6004546001830154610e2a92916001600160a01b039182169116612182565b84610d5a565b610e3c90600c54612020565b600c558a610d3c565b60405162461bcd60e51b815260206004820152601060248201526f2737ba103a3432903137b93937bbb2b960811b6044820152606490fd5b50346103eb57806003193601126103eb576020600d54604051908152f35b50346103eb576024610eac36611ee5565b9190610eb6612106565b610ebe612002565b600254604051633aeb3af960e21b815233600482015292602091849190829060081c6001600160a01b03165afa9182156107ef578492611488575b50610f05821515611fbd565b818452600560205260ff6006604086200154161561144f578184526005602052610f386003604086200154821115612129565b6201518092808481020484148115171561143b5762093a8084820210158061142b575b156113f35760035460405163031a312560e61b81523360048201526001600160a01b0390911690602081602481855afa9081156112ef5787916113c1575b5083116113855733865260096020526040862092604051808560208297549384815201908a5260208a20928a5b81811061136c575050610fdb92500385611f9b565b8694875b855181101561104d57610ff281876123dc565b518952600860205260ff600960408b20015416600481101561103957600114611024575b61101f906121f6565b610fdf565b9561103161101f916121f6565b969050611016565b634e487b7160e01b8a52602160045260248afd5b5087945086600a87101561132f57604051635c33a19b60e01b815233600482015290602082602481885afa9182156112ef5787926112fa575b5060206064611097602494876121c3565b04956040519384809263c0d1884360e01b82523360048301525afa9182156112ef5787926112b7575b50600a54956110ce876121f6565b600a55604051928361014081011067ffffffffffffffff610140860111176112a357610140840160405287845233602085015284604085015285606085015286608085015260a08401528760c08401528760e084015202610100820152856101208201528486526008602052610120600960408820835181556001810160018060a01b036020860151166001600160601b0360a01b82541617905560408401516002820155606084015160038201556080840151600482015560a0840151600582015560c0840151600682015560e08401516007820155610100840151600882015501910151600481101561128f5760ff80198354169116179055338552600960205260408520805495600160401b87101561127b5750856111f7916001602098018155611efb565b81549060031b9086821b91600019901b1916179055604051918252837f4646f5cd4a4f4bf52faac5741fe6ca4768f0d5ee724f7199979656af37fcf4ad863394a480611253575061124781612205565b60018055604051908152f35b60045461126d9190309033906001600160a01b0316612043565b61127681612205565b611247565b634e487b7160e01b81526041600452602490fd5b634e487b7160e01b87526021600452602487fd5b634e487b7160e01b89526041600452602489fd5b9091506020813d6020116112e7575b816112d360209383611f9b565b810103126112e3575190876110c0565b8680fd5b3d91506112c6565b6040513d89823e3d90fd5b91506020823d602011611327575b8161131560209383611f9b565b810103126112e3579051906020611086565b3d9150611308565b60405162461bcd60e51b8152602060048201526015602482015274546f6f206d616e7920616374697665206c6f616e7360581b6044820152606490fd5b8454835260019485019489945060209093019201610fc6565b60405162461bcd60e51b8152602060048201526014602482015273115e18d959591cc818dc99591a5d081b1a5b5a5d60621b6044820152606490fd5b90506020813d6020116113eb575b816113dc60209383611f9b565b810103126112e3575138610f99565b3d91506113cf565b60405162461bcd60e51b815260206004820152601060248201526f24b73b30b634b210323ab930ba34b7b760811b6044820152606490fd5b506301e133808482021115610f5b565b634e487b7160e01b85526011600452602485fd5b60405162461bcd60e51b8152602060048201526011602482015270139bc81c1bdbdb08199bdc881859d95b9d607a1b6044820152606490fd5b9091506020813d6020116114b4575b816114a460209383611f9b565b81010312610aab57519038610ef9565b3d9150611497565b50346103eb5760403660031901126103eb576114d6611f13565b6001600160a01b03168152600960205260408120805460243592908310156103eb5760206115048484611efb565b90546040519160031b1c8152f35b50346103eb5760203660031901126103eb5760043561152f611f3f565b6101f4811161153e57600b5580f35b60405162461bcd60e51b815260206004820152600c60248201526b08ccaca40e8dede40d0d2ced60a31b6044820152606490fd5b50346103eb57806003193601126103eb57546040516001600160a01b039091168152602090f35b50346103eb57806003193601126103eb57602060405162093a808152f35b50346103eb57806003193601126103eb576020600a54604051908152f35b50346103eb57806003193601126103eb5760405162461bcd60e51b815260206004820152602660248201527f5573652066726f6e742d656e6420746f207175657279207370656369666963206044820152656167656e747360d01b6064820152608490fd5b50346103eb57806003193601126103eb57611653611f3f565b61165b612002565b600160ff1960025416176002557f62e78cea01bee320cd4e420270b5ea74000d11b0c9f74754ebdbfc544b05a2586020604051338152a180f35b50346103eb576116a436611ee5565b906116ad612106565b6116b5612002565b8083526006602052604083203384526020526040832081845260056020526040842090805491848310611769576002916117008660038401956116fb8288541015612129565b612175565b90550161170e848254612175565b905561171b838254612175565b905560045461173690839033906001600160a01b0316612182565b6040519182527f02318968e33516654cb34389e0140034a5db180fecaac18baf6e47a633b0f46960203393a36001805580f35b60405162461bcd60e51b8152602060048201526014602482015273496e73756666696369656e742062616c616e636560601b6044820152606490fd5b50346103eb57806003193601126103eb576117be611f3f565b80546001600160a01b03198116825581906001600160a01b03167f8be0079c531659141344cd1fd0a4f28419497f9722a3daafe3b4186f6b6457e08280a380f35b50346103eb57806003193601126103eb576003546040516001600160a01b039091168152602090f35b50346103eb5760203660031901126103eb57600435600d54811015610a9c57600d602092527fd7b6990105719101dabeb77144f2a3385c8033acd3af97e9423a695e81ad1eb50154604051908152f35b50346103eb5760203660031901126103eb57600435611895611f3f565b61189d612106565b600c54908181116118d6576118b5816118cf93612175565b600c5560045483546001600160a01b039081169116612182565b6001805580f35b60405162461bcd60e51b8152602060048201526011602482015270496e73756666696369656e74206665657360781b6044820152606490fd5b50346103eb57806003193601126103eb57602060ff600254166040519015158152f35b50346103eb5760203660031901126103eb57604060e091600435815260056020522080549060018060a01b03600182015416906002810154600382015460048301549160ff600660058601549501541694604051968752602087015260408601526060850152608084015260a0830152151560c0820152f35b50346103eb57806003193601126103eb576020600c54604051908152f35b50346103eb5760203660031901126103eb57600435808252600560205260408220604051906119f782611f6b565b8054825260018060a01b0392836001830154169160208401928352600281015493604081019585875260038301549560608301968752600484015490608084019382855260c060ff600660058901549860a08501998a5201541615159101521515600014611ad65761271090818102918183041490151715611ac25797604091611a8560e09a8a51906121d6565b965b511697519651925193519481526007602052205494604051968752602087015260408601526060850152608084015260a083015260c0820152f35b634e487b7160e01b89526011600452602489fd5b508760409160e09996611a87565b50346103eb57602080600319360112610a9c57600435611b02611f3f565b808352600582526040832081815403611c75576001808201546001600160a01b03168552600980855260408087209051815480825291885286882093968895949092829081850190885b8b87838310611c605750505050611b6592500382611f9b565b87875b611be0575b88877fa9c82a0c045c7661ef43abdd8ef30d3d5d89837d88bf862448a2dbe03560dbe78888611bda600360048301928484549455611bb8856116fb6002840154600585015490612020565b9182910155604051938493846040919493926060820195825260208201520152565b0390a280f35b8151811015611c5b57611bf381836123dc565b518952600883526040892060ff85820154166004811015611c47579089809594939214611c2d575b50611c25906121f6565b909192611b68565b611c2591976003611c4092015490612020565b9690611c1b565b634e487b7160e01b8b52602160045260248bfd5b611b6d565b86548552958101958795509093019201611b4c565b60405162461bcd60e51b8152600481018490526013602482015272141bdbdb08191bd95cc81b9bdd08195e1a5cdd606a1b6044820152606490fd5b50346103eb57806003193601126103eb57611cc9611f3f565b60025460ff811615611d095760ff19166002557f5db9ee0a495bf2e6ff9c91a7834c1ba4fdd244a5e8aa4e537bd38aeae4b073aa6020604051338152a180f35b604051638dfc202b60e01b8152600490fd5b50346103eb57806003193601126103eb5760206040516107d08152f35b50346103eb5760203660031901126103eb57611d52612106565b611d5a612002565b60043581526006602052604081203382526020526001604082200180548015611d9457826118cf92553360018060a01b0360045416612182565b60405162461bcd60e51b81526020600482015260146024820152734e6f20696e74657265737420746f20636c61696d60601b6044820152606490fd5b50346103eb57806003193601126103eb576020604051600a8152f35b50346103eb57806003193601126103eb576004546040516001600160a01b039091168152602090f35b50346103eb57611e2436611ee5565b919081526007602052604081209081548310156103eb576020611e478484611efb565b905460405160039290921b1c6001600160a01b03168152f35b50346103eb57806003193601126103eb5760025460405160089190911c6001600160a01b03168152602090f35b50346103eb57806003193601126103eb5760206040516301e133808152f35b50346103eb5760603660031901126103eb5760206301e13380611edc604435612710610ba66024356004356121c3565b04604051908152f35b60409060031901126107e3576004359060243590565b80548210156107545760005260206000200190600090565b600435906001600160a01b03821682036107e357565b602435906001600160a01b03821682036107e357565b6000546001600160a01b03163303611f5357565b60405163118cdaa760e01b8152336004820152602490fd5b60e0810190811067ffffffffffffffff82111761076a57604052565b67ffffffffffffffff811161076a57604052565b90601f8019910116810190811067ffffffffffffffff82111761076a57604052565b15611fc457565b60405162461bcd60e51b8152602060048201526016602482015275139bdd0818481c9959da5cdd195c9959081859d95b9d60521b6044820152606490fd5b60ff6002541661200e57565b60405163d93c066560e01b8152600490fd5b9190820180921161202d57565b634e487b7160e01b600052601160045260246000fd5b6040516323b872dd60e01b60208201526001600160a01b03928316602482015292909116604483015260648083019390935291815260a081019181831067ffffffffffffffff84111761076a5761209c9260405261209e565b565b906000602091828151910182855af1156120fa576000513d6120f157506001600160a01b0381163b155b6120cf5750565b604051635274afe760e01b81526001600160a01b039091166004820152602490fd5b600114156120c8565b6040513d6000823e3d90fd5b600260015414612117576002600155565b604051633ee5aeb560e01b8152600490fd5b1561213057565b60405162461bcd60e51b815260206004820152601b60248201527f496e73756666696369656e7420706f6f6c206c697175696469747900000000006044820152606490fd5b9190820391821161202d57565b60405163a9059cbb60e01b60208201526001600160a01b0392909216602483015260448083019390935291815261209c916121be606483611f9b565b61209e565b8181029291811591840414171561202d57565b81156121e0570490565b634e487b7160e01b600052601260045260246000fd5b600019811461202d5760010190565b600081815260086020526040908181209060028201548152600560205282812091600981019060ff825416916004928381101561238b57612353576003820194855461225660038301918254612175565b90556122688487549201918254612020565b9055600160ff19825416179055426006820155612289600882015442612020565b600782015560018060a01b036122ad60018285541693019282845416875491612182565b8060035416915416845492823b1561234f57865163baae45e160e01b81526001600160a01b03909216908201908152602081019390935292918291849182908490829060400103925af19081156123445750917fb2e7e42df3fc0061410ecdbb2644b7b36cd803c2c7d9f20515593b59d98b988c9391602093612335575b50549051908152a2565b61233e90611f87565b3861232b565b8451903d90823e3d90fd5b8480fd5b855162461bcd60e51b81526020818501526012602482015271496e76616c6964206c6f616e20737461746560701b6044820152606490fd5b634e487b7160e01b855260218452602485fd5b156123a557565b60405162461bcd60e51b815260206004820152600f60248201526e4c6f616e206e6f742061637469766560881b6044820152606490fd5b80518210156107545760209160051b01019056fea2646970667358221220d122deace58e44d8dd325be3e59901bba0b90d8fa39b9f1f5657521d0140f3ac64736f6c63430008140033",
  "linkReferences": {},
  "deployedLinkReferences": {}
}