{
  "_format": "hh-sol-artifact-1",
  "contractName": "ReputationManagerV3",
  "sourceName": "contracts/core/ReputationManagerV3.sol",
  "abi": [
    {
      "inputs": [
        {
          "internalType": "address",
          "name": "_agentRegistry",
          "type": "address"
        }
      ],
      "stateMutability": "nonpayable",
      "type": "constructor"
    },
    {
      "inputs": [
        {
          "internalType": "address",
          "name": "owner",
          "type": "address"
        }
      ],
      "name": "OwnableInvalidOwner",
      "type": "error"
    },
    {
      "inputs": [
        {
          "internalType": "address",
          "name": "account",
          "type": "address"
        }
      ],
      "name": "OwnableUnauthorizedAccount",
      "type": "error"
    },
    {
      "anonymous": false,
      "inputs": [
        {
          "indexed": true,
          "internalType": "uint256",
          "name": "agentId",
          "type": "uint256"
        },
        {
          "indexed": false,
          "internalType": "uint256",
          "name": "amount",
          "type": "uint256"
        }
      ],
      "name": "DefaultRecorded",
      "type": "event"
    },
    {
      "anonymous": false,
      "inputs": [
        {
          "indexed": true,
          "internalType": "uint256",
          "name": "agentId",
          "type": "uint256"
        },
        {
          "indexed": false,
          "internalType": "uint256",
          "name": "amount",
          "type": "uint256"
        },
        {
          "indexed": false,
          "internalType": "bool",
          "name": "onTime",
          "type": "bool"
        }
      ],
      "name": "LoanCompleted",
      "type": "event"
    },
    {
      "anonymous": false,
      "inputs": [
        {
          "indexed": true,
          "internalType": "uint256",
          "name": "agentId",
          "type": "uint256"
        },
        {
          "indexed": false,
          "internalType": "uint256",
          "name": "amount",
          "type": "uint256"
        }
      ],
      "name": "LoanRecorded",
      "type": "event"
    },
    {
      "anonymous": false,
      "inputs": [
        {
          "indexed": true,
          "internalType": "address",
          "name": "previousOwner",
          "type": "address"
        },
        {
          "indexed": true,
          "internalType": "address",
          "name": "newOwner",
          "type": "address"
        }
      ],
      "name": "OwnershipTransferred",
      "type": "event"
    },
    {
      "anonymous": false,
      "inputs": [
        {
          "indexed": true,
          "internalType": "address",
          "name": "pool",
          "type": "address"
        }
      ],
      "name": "PoolAuthorized",
      "type": "event"
    },
    {
      "anonymous": false,
      "inputs": [
        {
          "indexed": true,
          "internalType": "address",
          "name": "pool",
          "type": "address"
        }
      ],
      "name": "PoolRevoked",
      "type": "event"
    },
    {
      "anonymous": false,
      "inputs": [
        {
          "indexed": true,
          "internalType": "uint256",
          "name": "agentId",
          "type": "uint256"
        },
        {
          "indexed": false,
          "internalType": "uint256",
          "name": "score",
          "type": "uint256"
        }
      ],
      "name": "ReputationInitialized",
      "type": "event"
    },
    {
      "anonymous": false,
      "inputs": [
        {
          "indexed": true,
          "internalType": "uint256",
          "name": "agentId",
          "type": "uint256"
        },
        {
          "indexed": false,
          "internalType": "uint256",
          "name": "oldScore",
          "type": "uint256"
        },
        {
          "indexed": false,
          "internalType": "uint256",
          "name": "newScore",
          "type": "uint256"
        },
        {
          "indexed": false,
          "internalType": "string",
          "name": "reason",
          "type": "string"
        }
      ],
      "name": "ReputationUpdated",
      "type": "event"
    },
    {
      "anonymous": false,
      "inputs": [
        {
          "indexed": false,
          "internalType": "uint256",
          "name": "onTimeBonus",
          "type": "uint256"
        },
        {
          "indexed": false,
          "internalType": "uint256",
          "name": "defaultPenaltyBase",
          "type": "uint256"
        },
        {
          "indexed": false,
          "internalType": "uint256",
          "name": "defaultPenaltyLarge",
          "type": "uint256"
        },
        {
          "indexed": false,
          "internalType": "uint256",
          "name": "largeLoanThreshold",
          "type": "uint256"
        }
      ],
      "name": "ScoringParametersUpdated",
      "type": "event"
    },
    {
      "anonymous": false,
      "inputs": [
        {
          "indexed": false,
          "internalType": "uint256",
          "name": "bonusThreshold",
          "type": "uint256"
        },
        {
          "indexed": false,
          "internalType": "uint256",
          "name": "creditBonus",
          "type": "uint256"
        }
      ],
      "name": "ValidationBonusParametersUpdated",
      "type": "event"
    },
    {
      "anonymous": false,
      "inputs": [
        {
          "indexed": true,
          "internalType": "address",
          "name": "registry",
          "type": "address"
        }
      ],
      "name": "ValidationRegistrySet",
      "type": "event"
    },
    {
      "inputs": [],
      "name": "agentRegistry",
      "outputs": [
        {
          "internalType": "contract AgentRegistryV2",
          "name": "",
          "type": "address"
        }
      ],
      "stateMutability": "view",
      "type": "function"
    },
    {
      "inputs": [
        {
          "internalType": "address",
          "name": "pool",
          "type": "address"
        }
      ],
      "name": "authorizePool",
      "outputs": [],
      "stateMutability": "nonpayable",
      "type": "function"
    },
    {
      "inputs": [
        {
          "internalType": "address",
          "name": "",
          "type": "address"
        }
      ],
      "name": "authorizedPools",
      "outputs": [
        {
          "internalType": "bool",
          "name": "",
          "type": "bool"
        }
      ],
      "stateMutability": "view",
      "type": "function"
    },
    {
      "inputs": [
        {
          "internalType": "address",
          "name": "agent",
          "type": "address"
        }
      ],
      "name": "calculateCollateralRequirement",
      "outputs": [
        {
          "internalType": "uint256",
          "name": "",
          "type": "uint256"
        }
      ],
      "stateMutability": "view",
      "type": "function"
    },
    {
      "inputs": [
        {
          "internalType": "address",
          "name": "agent",
          "type": "address"
        }
      ],
      "name": "calculateCreditLimit",
      "outputs": [
        {
          "internalType": "uint256",
          "name": "",
          "type": "uint256"
        }
      ],
      "stateMutability": "view",
      "type": "function"
    },
    {
      "inputs": [
        {
          "internalType": "address",
          "name": "agent",
          "type": "address"
        }
      ],
      "name": "calculateInterestRate",
      "outputs": [
        {
          "internalType": "uint256",
          "name": "",
          "type": "uint256"
        }
      ],
      "stateMutability": "view",
      "type": "function"
    },
    {
      "inputs": [
        {
          "internalType": "uint256",
          "name": "",
          "type": "uint256"
        }
      ],
      "name": "defaultCount",
      "outputs": [
        {
          "internalType": "uint256",
          "name": "",
          "type": "uint256"
        }
      ],
      "stateMutability": "view",
      "type": "function"
    },
    {
      "inputs": [],
      "name": "defaultPenaltyBase",
      "outputs": [
        {
          "internalType": "uint256",
          "name": "",
          "type": "uint256"
        }
      ],
      "stateMutability": "view",
      "type": "function"
    },
    {
      "inputs": [],
      "name": "defaultPenaltyLarge",
      "outputs": [
        {
          "internalType": "uint256",
          "name": "",
          "type": "uint256"
        }
      ],
      "stateMutability": "view",
      "type": "function"
    },
    {
      "inputs": [
        {
          "internalType": "address",
          "name": "agent",
          "type": "address"
        }
      ],
      "name": "getReputationScore",
      "outputs": [
        {
          "internalType": "uint256",
          "name": "",
          "type": "uint256"
        }
      ],
      "stateMutability": "view",
      "type": "function"
    },
    {
      "inputs": [
        {
          "internalType": "uint256",
          "name": "agentId",
          "type": "uint256"
        }
      ],
      "name": "getReputationScore",
      "outputs": [
        {
          "internalType": "uint256",
          "name": "",
          "type": "uint256"
        }
      ],
      "stateMutability": "view",
      "type": "function"
    },
    {
      "inputs": [
        {
          "internalType": "uint256",
          "name": "agentId",
          "type": "uint256"
        }
      ],
      "name": "initializeReputation",
      "outputs": [],
      "stateMutability": "nonpayable",
      "type": "function"
    },
    {
      "inputs": [],
      "name": "initializeReputation",
      "outputs": [],
      "stateMutability": "nonpayable",
      "type": "function"
    },
    {
      "inputs": [],
      "name": "largeLoanThreshold",
      "outputs": [
        {
          "internalType": "uint256",
          "name": "",
          "type": "uint256"
        }
      ],
      "stateMutability": "view",
      "type": "function"
    },
    {
      "inputs": [
        {
          "internalType": "uint256",
          "name": "",
          "type": "uint256"
        }
      ],
      "name": "loanCount",
      "outputs": [
        {
          "internalType": "uint256",
          "name": "",
          "type": "uint256"
        }
      ],
      "stateMutability": "view",
      "type": "function"
    },
    {
      "inputs": [],
      "name": "onTimeRepaymentBonus",
      "outputs": [
        {
          "internalType": "uint256",
          "name": "",
          "type": "uint256"
        }
      ],
      "stateMutability": "view",
      "type": "function"
    },
    {
      "inputs": [],
      "name": "owner",
      "outputs": [
        {
          "internalType": "address",
          "name": "",
          "type": "address"
        }
      ],
      "stateMutability": "view",
      "type": "function"
    },
    {
      "inputs": [
        {
          "internalType": "address",
          "name": "borrower",
          "type": "address"
        },
        {
          "internalType": "uint256",
          "name": "amount",
          "type": "uint256"
        }
      ],
      "name": "recordBorrow",
      "outputs": [],
      "stateMutability": "nonpayable",
      "type": "function"
    },
    {
      "inputs": [
        {
          "internalType": "address",
          "name": "borrower",
          "type": "address"
        },
        {
          "internalType": "uint256",
          "name": "amount",
          "type": "uint256"
        }
      ],
      "name": "recordDefault",
      "outputs": [],
      "stateMutability": "nonpayable",
      "type": "function"
    },
    {
      "inputs": [
        {
          "internalType": "address",
          "name": "borrower",
          "type": "address"
        },
        {
          "internalType": "uint256",
          "name": "amount",
          "type": "uint256"
        },
        {
          "internalType": "bool",
          "name": "onTime",
          "type": "bool"
        }
      ],
      "name": "recordLoanCompletion",
      "outputs": [],
      "stateMutability": "nonpayable",
      "type": "function"
    },
    {
      "inputs": [],
      "name": "renounceOwnership",
      "outputs": [],
      "stateMutability": "nonpayable",
      "type": "function"
    },
    {
      "inputs": [
        {
          "internalType": "address",
          "name": "pool",
          "type": "address"
        }
      ],
      "name": "revokePool",
      "outputs": [],
      "stateMutability": "nonpayable",
      "type": "function"
    },
    {
      "inputs": [
        {
          "internalType": "uint256",
          "name": "_onTimeBonus",
          "type": "uint256"
        },
        {
          "internalType": "uint256",
          "name": "_defaultPenaltyBase",
          "type": "uint256"
        },
        {
          "internalType": "uint256",
          "name": "_defaultPenaltyLarge",
          "type": "uint256"
        },
        {
          "internalType": "uint256",
          "name": "_largeLoanThreshold",
          "type": "uint256"
        }
      ],
      "name": "setScoringParameters",
      "outputs": [],
      "stateMutability": "nonpayable",
      "type": "function"
    },
    {
      "inputs": [
        {
          "internalType": "uint256",
          "name": "_bonusThreshold",
          "type": "uint256"
        },
        {
          "internalType": "uint256",
          "name": "_creditBonus",
          "type": "uint256"
        }
      ],
      "name": "setValidationBonusParameters",
      "outputs": [],
      "stateMutability": "nonpayable",
      "type": "function"
    },
    {
      "inputs": [
        {
          "internalType": "address",
          "name": "_validationRegistry",
          "type": "address"
        }
      ],
      "name": "setValidationRegistry",
      "outputs": [],
      "stateMutability": "nonpayable",
      "type": "function"
    },
    {
      "inputs": [
        {
          "internalType": "uint256",
          "name": "",
          "type": "uint256"
        }
      ],
      "name": "totalBorrowed",
      "outputs": [
        {
          "internalType": "uint256",
          "name": "",
          "type": "uint256"
        }
      ],
      "stateMutability": "view",
      "type": "function"
    },
    {
      "inputs": [
        {
          "internalType": "uint256",
          "name": "",
          "type": "uint256"
        }
      ],
      "name": "totalRepaid",
      "outputs": [
        {
          "internalType": "uint256",
          "name": "",
          "type": "uint256"
        }
      ],
      "stateMutability": "view",
      "type": "function"
    },
    {
      "inputs": [
        {
          "internalType": "address",
          "name": "newOwner",
          "type": "address"
        }
      ],
      "name": "transferOwnership",
      "outputs": [],
      "stateMutability": "nonpayable",
      "type": "function"
    },
    {
      "inputs": [],
      "name": "validationBonusThreshold",
      "outputs": [
        {
          "internalType": "uint256",
          "name": "",
          "type": "uint256"
        }
      ],
      "stateMutability": "view",
      "type": "function"
    },
    {
      "inputs": [],
      "name": "validationCreditBonus",
      "outputs": [
        {
          "internalType": "uint256",
          "name": "",
          "type": "uint256"
        }
      ],
      "stateMutability": "view",
      "type": "function"
    },
    {
      "inputs": [],
      "name": "validationRegistry",
      "outputs": [
        {
          "internalType": "contract ValidationRegistry",
          "name": "",
          "type": "address"
        }
      ],
      "stateMutability": "view",
      "type": "function"
    }
  ],
  "bytecode": "0x6080346100ea57601f61168738819003918201601f19168301916001600160401b038311848410176100ef578084926020946040528339810103126100ea57516001600160a01b0390818116908190036100ea5733156100d15760005460018060a01b0319903382821617600055604051933391167f8be0079c531659141344cd1fd0a4f28419497f9722a3daafe3b4186f6b6457e0600080a3600a80556032600b556064600c556402540be400600d55604b600e556377359400600f55600154161760015561158190816101068239f35b604051631e4fbdf760e01b815260006004820152602490fd5b600080fd5b634e487b7160e01b600052604160045260246000fdfe6080604081815260048036101561001557600080fd5b600092833560e01c9081630d1cfcae14611259575080630d889131146110de5780633059b7c6146110355780633b267dc4146110165780633b97f0da14610fef5780633f252e0014610f875780634c6b993a14610f5e5780635c33a19b14610f385780635eb283cb14610f195780636701239614610ef25780636ae3e75b14610e8c5780636d0555bd14610d5457806370e6348714610d35578063715018a614610cdb57806375a67d5c14610c395780637761194814610c1a5780638823d37a14610b745780638d51f45114610b555780638da5cb5b14610b2d578063978958b914610b0e578063a4e03ede14610ae7578063b8ff16bb146109ea578063baae45e1146108d7578063bd5bcb0a146108b1578063c0d1884314610884578063c68c494014610635578063ccbacd0e14610468578063cd4544f21461026a578063e816b39314610228578063f2fde38b146101a25763fc57d5c71461017857600080fd5b3461019e57602036600319011261019e5760209282913581526008845220549051908152f35b8280fd5b503461019e57602036600319011261019e576101bc61127e565b906101c5611299565b6001600160a01b0391821692831561021257505082546001600160a01b0319811683178455167f8be0079c531659141344cd1fd0a4f28419497f9722a3daafe3b4186f6b6457e08380a380f35b51631e4fbdf760e01b8152908101849052602490fd5b5050346102665760203660031901126102665760209160ff9082906001600160a01b0361025361127e565b1681526003855220541690519015158152f35b5080fd5b5091903461026657806003193601126102665761028561127e565b90602435903384526020600381526102a260ff838720541661137a565b6001548251633aeb3af960e21b81526001600160a01b039586168882015294829186916024918391165afa93841561045e57859461042b575b506102e784151561133f565b83855260098152818520805490600182018092116103b35755600b5492600d548111610421575b8486528682528286205493808511156103c65784038481116103b3579582867ff9bcc86acf8dd7e408cc3f8306da7395bbfe202a44b8660c4b0d17b95f7c50bf6060958795859c60a09a997fa98c95045e5b7a322aa9588c185e16cddc3a614e56b9762d0b7d678bcc0769109c9d9788925b878252855220558651908152a282519485528401528201526007606082015266191959985d5b1d60ca1b6080820152a280f35b634e487b7160e01b875260118852602487fd5b50918582867ff9bcc86acf8dd7e408cc3f8306da7395bbfe202a44b8660c4b0d17b95f7c50bf60609560a09897859c877fa98c95045e5b7a322aa9588c185e16cddc3a614e56b9762d0b7d678bcc0769109c9d978892610380565b600c54935061030e565b9080945081813d8311610457575b6104438183611307565b81010312610453575192386102db565b8480fd5b503d610439565b82513d87823e3d90fd5b50903461019e57606036600319011261019e5761048361127e565b906024356044358015159081810361063157338752602090600382526104ae60ff868a20541661137a565b6001548551633aeb3af960e21b81526001600160a01b039788168982015296839188916024918391165afa9586156106275788966105d4575b509480967fd8a6eebeb93c360045c8fc6b39c54c7b320546cd228f83a4495f614caa01836b9661051883151561133f565b828a5260078452868a2061052d8782546113be565b9055610542575b50508351928352820152a280f35b60a07fa98c95045e5b7a322aa9588c185e16cddc3a614e56b9762d0b7d678bcc07691091838b52808552878b20549061057d600a54836113be565b906103e88083116105cc575b50858d52865280898d205588519182528582015260608882015260116060820152701bdb8b5d1a5b59481c995c185e5b595b9d607a1b6080820152a28538610534565b915038610589565b95508186813d8311610620575b6105eb8183611307565b8101031261061c577fd8a6eebeb93c360045c8fc6b39c54c7b320546cd228f83a4495f614caa01836b9551956104e7565b8780fd5b503d6105e1565b85513d8a823e3d90fd5b8680fd5b50903461019e576020926003199284843601126102665761065461127e565b600180548551633aeb3af960e21b81526001600160a01b039384168186015291969193929088908590602490829085165afa93841561087a57859461084b575b508385528288528585205461032081106108015750640ba43b7400965b816002541693841515806107f6575b6106ce575b89898951908152f35b8751928a84019380851067ffffffffffffffff8611176107e357848a528881528951630dbe55eb60e11b81529283019790975260606024830152955160648201819052909586948b9490938993608488019385905b8282106107c457505050505084810392830160448601525260809391019082905afa9182156107b957809261077f575b5050600e54111561076b575b388080808080806106c5565b9061077990600f54906113be565b9061075f565b9091506080823d82116107b1575b8161079a60809383611307565b810103126107ae5750606001513880610753565b80fd5b3d915061078d565b8351903d90823e3d90fd5b8451811686528b99508f988d9750958601959094019390830190610723565b634e487b7160e01b895260418352602489fd5b50600f5415156106c0565b610258811061081757506405d21dba00966106b1565b610190811061082d57506402540be400966106b1565b60c8116108405764012a05f200966106b1565b633b9aca00966106b1565b9093508781813d8311610873575b6108638183611307565b8101031261045357519238610694565b503d610859565b86513d87823e3d90fd5b505034610266576020366003190112610266576020906108aa6108a561127e565b611497565b9051908152f35b503461019e57602036600319011261019e57602092818392358252845220549051908152f35b509190346102665780600319360112610266576108f261127e565b906024353384526020916003835261090f60ff828720541661137a565b6001548151633aeb3af960e21b81526001600160a01b039586168882015294849186916024918391165afa9384156109e05785946109b1575b5061095484151561133f565b838552600683528085206109698382546113be565b905583855260088352808520805490600182018092116103b3577f3502a56bb632c9a05a39c7ffa2d012711b758393ecb03430e6b632d8c15622e3959697505551908152a280f35b9093508281813d83116109d9575b6109c98183611307565b8101031261045357519238610948565b503d6109bf565b81513d87823e3d90fd5b50903461019e578260031936011261019e576001548151633aeb3af960e21b81523384820152916020918290849060249082906001600160a01b03165afa9283156109e0578593610a98575b508293610a657f4377f3071c2eb9d1acf1e74fcd9135aec5d2a033056f898ff60ea5158f4e26ce94151561133f565b848652808352610a7882872054156112c5565b84865282526064818620553385526005825283818620555160648152a280f35b92508183813d8311610ae0575b610aaf8183611307565b81010312610453577f4377f3071c2eb9d1acf1e74fcd9135aec5d2a033056f898ff60ea5158f4e26ce925192610a36565b503d610aa5565b503461019e57602036600319011261019e5760209282913581526009845220549051908152f35b505034610266578160031936011261026657602090600c549051908152f35b505034610266578160031936011261026657905490516001600160a01b039091168152602090f35b505034610266578160031936011261026657602090600a549051908152f35b50919034610266578060031936011261026657823560243593610b95611299565b60648211610bd757507fac2d5c952f4ce0c368a68e4df480d4a24c10778666cb62f220e5d29e76498f32929381600e5580600f5582519182526020820152a180f35b606490602084519162461bcd60e51b8352820152601760248201527f5468726573686f6c64206d75737420626520302d3130300000000000000000006044820152fd5b505034610266578160031936011261026657602090600f549051908152f35b5091903461026657602091826003193601126107ae57610c5761127e565b6001548351633aeb3af960e21b81526001600160a01b03928316818801529591859187916024918391165afa8015610cd1578290610ca1575b839495508252845220549051908152f35b508385813d8311610cca575b610cb78183611307565b8101031261026657935192938493610c90565b503d610cad565b83513d84823e3d90fd5b83346107ae57806003193601126107ae57610cf4611299565b80546001600160a01b03198116825581906001600160a01b03167f8be0079c531659141344cd1fd0a4f28419497f9722a3daafe3b4186f6b6457e08280a380f35b505034610266578160031936011261026657602090600e549051908152f35b50829034610266576080366003190112610266578035906024356044359060643592610d7e611299565b60328511610e585760c88211610e225761012c8311610de65750918391866080947fb66e643f94a1ea8119a6f716a1b9c4f5d18ff88458affce71d351ccb46a2ca9496600a5580600b5582600c5583600d55815194855260208501528301526060820152a180f35b606490602088519162461bcd60e51b83528201526016602482015275098c2e4ceca40e0cadcc2d8e8f240e8dede40d0d2ced60531b6044820152fd5b606490602088519162461bcd60e51b8352820152601060248201526f0a0cadcc2d8e8f240e8dede40d0d2ced60831b6044820152fd5b606490602088519162461bcd60e51b8352820152600e60248201526d084dedceae640e8dede40d0d2ced60931b6044820152fd5b50503461026657602036600319011261026657610ea761127e565b610eaf611299565b6001600160a01b03168083526003602052908220805460ff191690557f252c8dd124d1ea4cfc8ad869ec8f838d9d37434dd27bfaf35d5fdbf8729dc1a08280a280f35b503461019e57602036600319011261019e5760209282913581526006845220549051908152f35b505034610266578160031936011261026657602090600d549051908152f35b505034610266576020366003190112610266576020906108aa610f5961127e565b6113e1565b50503461026657816003193601126102665760025490516001600160a01b039091168152602090f35b83346107ae5760203660031901126107ae57610fa161127e565b610fa9611299565b600280546001600160a01b0319166001600160a01b039290921691821790557f4cef00f9bcb7ec200051f75ef11a4d32ae11c5669396a848e3bb95fb000461c18280a280f35b503461019e57602036600319011261019e5760209282913581526007845220549051908152f35b505034610266578160031936011261026657602090600b549051908152f35b50903461019e57602036600319011261019e5761105061127e565b611058611299565b6001600160a01b03169182156110a5575081835260036020528220805460ff191660011790557fc13bb2196f59e9fa90738150dac5f901de66f89ccf2ab6435c1ab8d0dea1d61c8280a280f35b6020606492519162461bcd60e51b83528201526014602482015273496e76616c696420706f6f6c206164647265737360601b6044820152fd5b50903461019e57602090816003193601126112555782359283156112215783855280835261110f82862054156112c5565b6001548251633aeb3af960e21b81523383820152908490829060249082906001600160a01b03165afa9081156112175790859187916111e2575b500361119357907f4377f3071c2eb9d1acf1e74fcd9135aec5d2a033056f898ff60ea5158f4e26ce929184865282526064818620553385526005825283818620555160648152a280f35b82608492519162461bcd60e51b8352820152602560248201527f43616c6c6572206973206e6f7420746865206f776e6572206f662074686973206044820152641859d95b9d60da1b6064820152fd5b809250858092503d8311611210575b6111fb8183611307565b8101031261120c5784905138611149565b8580fd5b503d6111f1565b83513d88823e3d90fd5b82606492519162461bcd60e51b8352820152601060248201526f125b9d985b1a59081859d95b9d08125160821b6044820152fd5b8380fd5b8490346102665781600319360112610266576001546001600160a01b03168152602090f35b600435906001600160a01b038216820361129457565b600080fd5b6000546001600160a01b031633036112ad57565b60405163118cdaa760e01b8152336004820152602490fd5b156112cc57565b60405162461bcd60e51b8152602060048201526013602482015272105b1c9958591e481a5b9a5d1a585b1a5e9959606a1b6044820152606490fd5b90601f8019910116810190811067ffffffffffffffff82111761132957604052565b634e487b7160e01b600052604160045260246000fd5b1561134657565b60405162461bcd60e51b815260206004820152600c60248201526b139bdd08185b881859d95b9d60a21b6044820152606490fd5b1561138157565b60405162461bcd60e51b81526020600482015260156024820152744f6e6c7920617574686f72697a656420706f6f6c7360581b6044820152606490fd5b919082018092116113cb57565b634e487b7160e01b600052601160045260246000fd5b600154604051633aeb3af960e21b81526001600160a01b0392831660048201529160209183916024918391165afa90811561148b5760009161145a575b50600052600460205260406000205461032081101561145457610258811015611454576101f4111561144f57606490565b601990565b50600090565b906020823d8211611483575b8161147360209383611307565b810103126107ae5750513861141e565b3d9150611466565b6040513d6000823e3d90fd5b600154604051633aeb3af960e21b81526001600160a01b0392831660048201529160209183916024918391165afa90811561148b5760009161151a575b5060005260046020526040600020546103208110156115135761025881101561150c576101901115611506576105dc90565b6103e890565b506102bc90565b506101f490565b906020823d8211611543575b8161153360209383611307565b810103126107ae575051386114d4565b3d915061152656fea2646970667358221220a2a8eab0c52fcb5c2b37c14afdc84ce44058ddd9d0bbe7d9696210a4ce2e98db64736f6c63430008140033",
  "linkReferences": {},
  "deployedLinkReferences": {}
}